:02047E00CEF8B6
:100480005EFE1AAE6EF86EF4008825FA44D0017054
:1004900006C37FE02EF42EF8EAA11EFE8EF200784D
:1004A00005C8500400056406000707CE017802C99C
:1004B00000F0980514E490060107A5F045F201F05C
:1004C000620B67F002C200002ECE45F02B912A90FD
:1004D00046F006F046F00A0229F005F2A5F001F018
:1004E000620B67F002C201001ECE45F046F046F0F6
:1004F0002B912A900A0229F005F2A5F001F0620B77
:1005000067F002C202000FCE45F046F046F02B9194
:100510002A9046F00A0229F005F2A5F001F0620BDC
:1005200067F03DC20300008200001190B4EF00E0CC
:100530001390B6EF1390B8EF1390BAEF1390BCEF8F
:100540001390BEEF1390C0EF1190C2EF1190C3EF64
:1005500082A0A4F2D2A059F2D2A05AF2D0A05BF2AB
:10056000D2A05CF2D0A05DF2E2A059F2E2A05AF271
:10057000E0A05BF2E2A05CF2E0A05DF280801A9065
:1005800020812A91038144D04A9013800130119038
:10059000A4F200E000F094047EE000F094047DE01A
:0405A00000F09404CF
:0A0FF6005EFE1AAE5EF800880000EF
:101000001190B4EF1392B6EF42B01390B8EF44B022
:101010001390BAEF46B01390BCEF00E01390BEEF10
:1010200048B01390C0EF00001190C2EF1190C3EFD1
:101030001290B8EF08C81290BCEF05C801E01EF886
:10104000EAA11EFE1FFE1090A5F20120017002C849
:101050007FE0F5CE01001190C3EF80801A901190CF
:0C106000A1F201001190A3F200E0E9CE23
:0802B8005EFE1AAE5EF800883C
:1002C00001001190B4EF1392B6EF42B01390B8EF63
:1002D00044B01390BAEF46B01390BCEF00E0139017
:1002E000BEEF48B01390C0EF00001190C2EF119024
:1002F000C3EF1290B8EF08C81290BCEF05C801E038
:100300001EF8EAA11EFE1FFE1090A5F2012001704A
:1003100002C87FE0F5CE01001190C3EF1290B8EF54
:1003200004C880801A90013002CE80801A9011900B
:0C033000A1F201001190A3F200E0E2CE67
:060B7A00CEF85EFC5EF403
:100B80001090A5F200811090C3EF0EC901701CC92E
:100B9000027002C800F09C0C037002C800F03C0D0B
:100BA000047002C800F0900D1290C0EF09C905F45E
:100BB00000E01390C0EF1092C2EF1290BEEF43F02E
:100BC00001E01EF41EFC8EF210800420047017C891
:100BD00000001190C3EF02001190C2EF00001190CD
:100BE000A3F21290C0EF09C905F400E01390C0EF22
:100BF0001092C2EF1290BEEF43F001E0E2CE1080FF
:100C0000022002700AC800001190C3EF0100119089
:100C1000C2EF02001190A3F23ECE1290B8EF15C9B8
:100C200002001190C3EF129CB6EFC0901190A2F297
:100C3000C5F081E01390B6EF1290B8EFFFE013908B
:100C4000B8EF01001190A3F226CE1090B4EF0FC9B7
:100C500004001190C3EF01041290BCEFFFE0129268
:100C6000BEEF27F001C881041194A3F214CE030053
:100C70001190C3EF129CBAEFC0901190A2F2C5F090
:100C800081E01390BAEF1290BEEF81E01390BEEFB7
:100C900001001190A3F200E000F0C20B10800220CE
:100CA00002700BC800001190C3EF01001190C2EF59
:100CB00002001190A3F200F0360D1290B8EF12C9A5
:100CC000129CB6EFC0901190A2F2C5F081E0139093
:100CD000B6EF1290B8EFFFE01390B8EF010011905B
:100CE000A3F229CE1290BCEF07C800001190C3EF09
:100CF00002001190A3F21FCE1090B4EF08C90100BA
:100D00001190C3EF80A0A1F2A0A0A3F214CE030023
:100D10001190C3EF129CBAEFC0901190A2F2C5F0EF
:100D200081E01390BAEF1290BEEF81E01390BEEF16
:100D300001001190A3F200E000F0C20B108002202D
:100D4000027008C800001190C3EF01001190C2EFBB
:100D5000020019CE1290BCEF1292BEEF27F00FC91D
:100D6000129CBAEFC0901190A2F2C5F081E01390EE
:100D7000BAEF25F081E01390BEEF010004CE000031
:100D80001190C3EF02001190A3F200E000F0C20B3B
:040D9000129CBAEF08
:0C0D94001090A0F2C1901290BAEF81E024
:100DA0001390BAEF1290BEEF81E01390BEEF129055
:100DB000BCEF1292BEEF27F008C90104FFE027F054
:100DC00001C881041194A3F206CE00001190C3EF74
:0C0DD00002001190A3F200E000F0C20B42
:1006600082A0A3F200001190B4EF00E01390B6EF67
:100670001390B8EF1390BAEF1390BCEF1390BEEF46
:0E0680001390C0EF1190C2EF1190C3EF1FFE58
:08007800000000000000000080
:08008000000000000000000078
:0C0704005EF40000119011F0119012F052
:10071000119013F0119014F0119015F0119016F043
:10072000119017F0119018F0119019F011901AF023
:1007300011901BF011901CF011901DF011901EF003
:1007400011901FF000E445F046F0A602030309A251
:0E07500074EF81E41F740055F6C51EF41FFE01
:0403860008ED1FFE61
:04038200F7EB1FFE78
:100350006EF8008825FA1F7003C17FE02EF81FFE9B
:1003600025F206C98080000106F009AA74EF07CEC5
:100370008080000106F0A602030309A274EF00E0EA
:02038000EDCEC0
:020006000FFEEB
:0203A6001FFE38
:02068E00000169
:0806900006F008A074EF02F06F
:100EC000CEFF6EF0109000F04EF0000001F08E06A4
:0A0ED0000EF0119000F02EF08EFFDE
:040E4C00CEF96EF07D
:100E5000109000F04EF0010001F08E060EF011909F
:080E600000F02EF08EF90FFEE8
:10012000CEF96EF0109000F04EF0020001F08E0655
:0C0130000EF0119000F02EF08EF90FFE82
:04013C00CEF96EF09A
:10014000109000F04EF0030001F08E060EF01190BA
:0801500000F02EF08EF90FFE05
:0C0E1400CEF96EF0109000F04EF00400DB
:100E200001F08E060EF0119000F02EF08EF90FFEFC
:0800E800CEF96EF0109000F05B
:1000F0004EF0050001F08E060EF0119000F02EF08B
:040100008EF90FFE67
:0C010400CEF96EF0109000F04EF00600F6
:1001100001F08E060EF0119000F02EF08EF90FFE19
:040DDC00CEF96EF0EE
:100DE000109000F04EF0070001F08E060EF011900A
:080DF00000F02EF08EF90FFE59
:080DF800CEF96EF0109000F03E
:100E00004EF0080001F08E060EF0119000F02EF06A
:040E10008EF90FFE4A
:020F2E00CEF9FA
:100F30006EF0109000F04EF0090001F08E060EF0F9
:0A0F4000119000F02EF08EF90FFE64
:080E8800CEF96EF0109000F0AD
:100E90004EF00A0001F08E060EF0119000F02EF0D8
:040EA0008EF90FFEBA
:0E0F1200CEF96EF0109000F04EF00B0001F0E2
:0E0F20008E060EF0119000F02EF08EF90FFEEE
:060F4A00CEF96EF01090DC
:100F500000F04EF00C0001F08E060EF0119000F043
:060F60002EF08EF90FFED9
:08019800CEF96EF0109000F0AA
:1001A0004EF00D0001F08E060EF0119000F02EF0D2
:0401B0008EF90FFEB7
:0C01B400CEF96EF0109000F04EF00E003E
:1001C00001F08E060EF0119000F02EF08EF90FFE69
:04026C00CEF96EF069
:10027000109000F04EF00F0001F08E060EF011907D
:0802800000F02EF08EF90FFED4
:08028800CEF96EF0109000F0B9
:100290004EF0100001F08E060EF0119000F02EF0DE
:0402A0008EF90FFEC6
:04017C00CEF96EF05A
:10018000109000F04EF0110001F08E060EF011906C
:0801900000F02EF08EF90FFEC5
:08015800CEF96EF0109000F0EA
:100160004EF0120001F08E060EF0119000F02EF00D
:040170008EF90FFEF7
:1001D000CEF96EF0109000F04EF0130001F08E0694
:0C01E0000EF0119000F02EF08EF90FFED2
:060EDA00CEF96EF010904D
:100EE00000F04EF0140001F08E060EF0119000F0AC
:060EF0002EF08EF90FFE4A
:0401EC00CEF96EF0EA
:1001F000109000F04EF0150001F08E060EF01190F8
:0802000000F02EF08EF90FFE54
:0A0EF600CEF96EF0109000F04EF0FF
:100F0000160001F08E060EF0119000F02EF08EF912
:020F10000FFED2
:0C064400CEF96EF0109000F04EF01700A0
:1006500001F08E060EF0119000F02EF08EF90FFED4
:0C05A400CEF96EF0109000F04EF0180040
:1005B00001F08E060EF0119000F02EF08EF90FFE75
:1005C000CEF96EF0109000F04EF0190001F08E069A
:0C05D0000EF0119000F02EF08EF90FFEDE
:0405DC00CEF96EF0F6
:1005E000109000F04EF01A0001F08E060EF01190FF
:0805F00000F02EF08EF90FFE61
:0C0EA400CEF96EF0109000F04EF01B0034
:100EB00001F08E060EF0119000F02EF08EF90FFE6C
:100E3000CEF96EF0109000F04EF01C0001F08E061E
:0C0E40000EF0119000F02EF08EF90FFE65
:0400CC00CEF96EF00B
:1000D000109000F04EF01D0001F08E060EF0119011
:0800E00000F02EF08EF90FFE76
:06038A00CEF96EF01090A8
:1003900000F04EF01E0001F08E060EF0119000F0FD
:0603A0002EF08EF90FFEA5
:02000800C00E28
:04000C004C0E060090
:1000100020013C01140E0600E8000401DC0DF80D7F
:100020002E0F0600880E060006000600120F4A0F6B
:10003000060006009801B40106000600060006004E
:100040006C02880206000600060006007C015801CA
:100050000600060006000600D001DA0EEC01F60EDE
:100060004406A405C005DC050600A40E0600300EFB
:08007000CC00060006008A0323
:0806980001F0620801F03C03CF
:1006A00000001190FFEF01F06006A80003015EF06A
:1006B00001E05EF0F100EF015EF001E05EF0DA02D1
:1006C000EF031090C4EF01F0B80208E102CE01F090
:1006D0003C031090FFEF0170FAC81090F2EF03C9CD
:1006E000A0A060F20ECE80A060F26000EA0101F0EE
:1006F000A4026000EA0101F0A4026000EA0101F036
:04070000A402CCCEB5
:04033C005A001190C2
:100340000EF081A00EF0FAC9A50011900EF01FFE6C
:0E086200CEF880A02AF0A2A02AF0B0A02AF0C2
:10087000E0A02AF0F2A02AF0000011902CF01190D4
:100880002EF011902FF001F0F80501F0BA0301F0FD
:100890005E0701F0080290A059F292A05BF290A0CE
:1008A0005AF282A055F282A054F290A058F201F0C0
:1008B0003C0301F0680E00001190E0F81190E1F89F
:1008C00092A0E1F880A0E1F8D2A0E2F8F2A0E2F86C
:1008D00082A0E3F801F0820301F004070000119008
:1008E00017F0119016F0119015F0119014F011906E
:1008F00013F0119012F0119011F0119010F011906E
:100900001FF011901EF011901DF011901CF011902D
:100910001BF011901AF0119019F0119018F0B2A07C
:1009200017F06E020B030C0001F05003F0A012F060
:10093000F0A01AF080A014F001F0860303001190DB
:100940000FF001F03C0300004EF040021F030100D5
:1009500001F07E0402E100001190FFEF01F060065B
:10096000A80003015EF001E05EF0F200EF015EF02E
:1009700001E05EF0DF02EF031090C4EF01F0F60F2C
:1009800008E102CE01F03C031090FFEF0170FAC8BD
:1009900000001190FFEF01F06006A80003015EF077
:1009A00001E05EF0E600EF015EF001E05EF0CD02F6
:1009B000EF031090C4EF01F0F60F08E102CE01F052
:1009C0003C031090FFEF0170FAC800001190FFEF98
:1009D00001F06006A80003015EF001E05EF0E700B0
:1009E000EF015EF001E05EF0CF02EF031090C4EF84
:1009F00001F0F60F08E102CE01F03C031090FFEF8A
:100A00000170FAC800001190FFEF01F06006A80025
:100A100003015EF001E05EF0E800EF015EF001E04E
:0E0A20005EF0D202EF031090C4EF01F0F60F6B
:020A2E0008E1DD
:100A300002CE01F03C031090FFEF0170FAC80000F5
:100A40001190FFEF01F06006A80003015EF001E0E5
:100A50005EF0E900EF015EF001E05EF0D402EF032A
:100A60001090C4EF01F0F60F08E102CE01F03C0354
:100A70001090FFEF0170FAC800001190FFEF01F035
:100A80006006A80003015EF001E05EF0EA00EF01FD
:100A90005EF001E05EF0C802EF031090C4EF01F0D9
:100AA000F60F08E102CE01F03C031090FFEF017059
:100AB000FAC800001190FFEF01F06006A8000301E2
:100AC0005EF001E05EF0ED00EF015EF001E05EF04F
:100AD000C602EF031090C4EF01F0F60F08E102CE5A
:100AE00001F03C031090FFEF0170FAC80000119074
:100AF000FFEF01F06006A80003015EF001E05EF088
:100B0000EC00EF015EF001E05EF0C602EF03109032
:100B1000C4EF01F0F60F08E102CE01F03C031090A3
:100B2000FFEF0170FAC800001190FFEF01F06006BE
:100B3000A80003015EF001E05EF0F200EF015EF05C
:100B400001E05EF0DF02EF031090C4EF01F0F60F5A
:100B500008E102CE01F03C031090FFEF0170FAC8EB
:020B60008EF213
:0803A800CEF801F07A0B010010
:0A03B0001190FFEF01F074018EF2CE
:020B6E00CEF8BF
:0A0B700001F07A0B01F074018EF21F
:0801740001001190FEEF1FFED7
:080E680082A002F092A002F04A
:100E7000B0A002F0A2A002F090A003F080A003F0C6
:080E8000F0A003F008ED1FFED5
:0805F80082A051F292A051F221
:10060000A2A051F280A053F280A052F290A053F227
:1006100090A052F2A0A053F2A0A052F282A055F2F4
:1006200082A054F292A055F292A054F2A2A055F2E8
:10063000A2A054F282A050F292A050F2A2A050F2D6
:0406400000F03C0387
:0603BA0082A059F292A09E
:1003C00059F2A2A059F2B2A059F2C2A059F2D2A099
:1003D00059F2E2A059F2F2A059F280A05BF280A09B
:1003E0005AF290A05BF290A05AF2A0A05BF2A0A0FB
:1003F0005AF2B0A05BF2B0A05AF2C0A05BF2C0A06B
:100400005AF2D0A05BF2D0A05AF2E0A05BF2E0A0DA
:100410005AF2F0A05BF2F0A05AF282A05DF282A044
:100420005CF292A05DF292A05CF2A2A05DF2A2A0AA
:100430005CF2B2A05DF2B2A05CF2C2A05DF2C2A01A
:100440005CF2D2A05DF2D2A05CF2E2A05DF2E2A08A
:100450005CF2F2A05DF2F2A05CF282A058F292A0EF
:1004600058F2A2A058F2B2A058F2C2A058F2D2A0FC
:0E04700058F2E2A058F2F2A058F200F03C035D
:02075E0082A077
:1007600061F292A061F2A2A061F2B2A061F2C2A015
:1007700061F2D2A061F2E2A061F2F2A061F280A087
:1007800063F280A062F290A063F290A062F2A0A057
:1007900063F2A0A062F2B0A063F2B0A062F2C0A0C7
:1007A00063F2C0A062F2D0A063F2D0A062F2E0A037
:1007B00063F2E0A062F2F0A063F2F0A062F282A025
:1007C00065F282A064F292A065F292A064F2A2A007
:1007D00065F2A2A064F2B2A065F2B2A064F2C2A077
:1007E00065F2C2A064F2D2A065F2D2A064F2E2A0E7
:1007F00065F2E2A064F2F2A065F2F2A064F282A0D7
:1008000060F292A060F2A2A060F2B2A060F2C2A078
:1008100060F2D2A060F2E2A060F2F2A060F200F01A
:020820003C0397
:0802080082A069F292A069F2E4
:10021000A2A069F2B2A069F2C2A069F2D2A069F20A
:1002200080A06BF280A06AF290A06BF290A06AF2BC
:10023000A0A06BF2A0A06AF2B0A06BF2B0A06AF22C
:10024000C0A06BF2C0A06AF2D0A06BF2D0A06AF29C
:1002500082A068F292A068F2A2A068F2B2A068F24E
:0C026000C2A068F2D2A068F200F03C03DB
:0C02A4005EF805F800E085F201CE81E074
:0802B00027F0FDC11EF81FFE3E
:02000200660F87
:080088005CFAFF10C0C1C2C305
:10009000C4C8C9CACBCCCDCECF000102030405062B
:1000A000070809F0F1F2F4F5F4F50701001F00006C
:0700B0000304000000000042
:0100B7000048
:0200000072EF9D
:02000400680F83
:0A0F660001CEFFCE00E000E200E43F
:100F700000E60008E0098AF0579088E8F079FCC1A3
:100F80000078FAC15A0CA50D119C0EF081A00EF04C
:100F9000FBC9119D0EF0000A0CF0C200AF905290F8
:100FA000FF7002C8FF7120C9AF905292AF90529467
:100FB000AF905096AF90509780E4F0C901A20BC853
:100FC00001A409C86F90029882E07F90239882E282
:100FD000FEE4F8C8E3CE6F90009881E07F902198FE
:100FE00081E2FFE4F8C8DACE01F00A0000001190B7
:060FF00000F000F098067D
:02000A001FFED7
:0800C2007800B4EF4A000000D1
:0200CA00FFFF36
:107FE000FFFFFFFFFFFFFFFFFFFFFFFFFFFFFFFFA1
:107FF000FFFFFFFFFFFFFFFFFFFFFFFFFFFFFFFF91
:0800B800000000000000000040
:0200C00000003E
:0C0B6200CEF86EF801F022082EF88EF29A
:0E082200007302C829F01BCE6EF405F825FA0B
:100830001D981C991D9A1C9B007BFAC8A9F88084FE
:10084000208844F8308644F6618907F803C3288875
:100850003989FF148880998105F2408000012EF4C7
:020860001FFE79
:00000001FF
