:0C046400CEF85EFE1AAE6EF86EF4008852
:1004700025FA44D0017006C37FE02EF42EF8EAA1DD
:100480001EFE8EF2007805C85004000564060007C1
:1004900007CE017802C900F07E0514E4900601073A
:1004A000A5F045F201F0FC0967F002C200002ECE73
:1004B00045F02B912A9046F006F046F00A0229F00A
:1004C00005F2A5F001F0FC0967F002C201001ECEA2
:1004D00045F046F046F02B912A900A0229F005F2E9
:1004E000A5F001F0FC0967F002C202000FCE45F052
:1004F00046F046F02B912A9046F00A0229F005F2C8
:10050000A5F001F0FC0967F03DC203000082000085
:100510001190D0EF00E01390D2EF1390D4EF13902E
:10052000D6EF1390D8EF1390DAEF1390DCEF119021
:10053000DEEF1190DFEF82A0A4F2D2A059F2D2A098
:100540005AF2D0A05BF2D2A05CF2D0A05DF2E2A0A1
:1005500059F2E2A05AF2E0A05BF2E2A05CF2E0A065
:100560005DF280801A9020812A91038144D04A90C4
:10057000138001301190A4F200E000F07A047EE0D4
:0A05800000F07A047DE000F07A0438
:0A0EC6005EFE1AAE5EF80088000020
:100ED0001190D0EF1392D2EF42B01390D4EF44B000
:100EE0001390D6EF46B01390D8EF00E01390DAEFEE
:100EF00048B01390DCEF00001190DEEF1190DFEFAF
:100F00001290D4EF08C81290D8EF05C801E01EF87F
:100F1000EAA11EFE1FFE1090A5F20120017002C87A
:100F20007FE0F5CE01001190DFEF80801A901190E4
:0C0F3000A1F201001190A3F200E0E9CE54
:02029E005EFE02
:1002A0001AAE5EF8008801001190D0EF1392D2EFE1
:1002B00042B01390D4EF44B01390D6EF46B01390F1
:1002C000D8EF00E01390DAEF48B01390DCEF0000B5
:1002D0001190DEEF1190DFEF1290D4EF08C812906A
:1002E000D8EF05C801E01EF8EAA11EFE1FFE10901F
:1002F000A5F20120017002C87FE0F5CE0100119047
:10030000DFEF1290D4EF04C880801A90013002CE43
:1003100080801A901190A1F201001190A3F200E0E8
:02032000E2CE2B
:0C0A1400CEF85EFC5EF41090A5F20081AC
:100A20001090DFEF0EC901701CC9027002C800F0FF
:100A3000360B037002C800F0D60B047002C800F039
:100A40002A0C1290DCEF09C905F400E01390DCEFEA
:100A50001092DEEF1290DAEF43F001E01EF41EFC7C
:100A60008EF210800420047017C800001190DFEF90
:100A700002001190DEEF00001190A3F21290DCEF63
:100A800009C905F400E01390DCEF1092DEEF12903C
:100A9000DAEF43F001E0E2CE1080022002700AC8D3
:100AA00000001190DFEF01001190DEEF02001190C5
:100AB000A3F23ECE1290D4EF15C902001190DFEFE1
:100AC000129CD2EFC0901190A2F2C5F081E0139079
:100AD000D2EF1290D4EFFFE01390D4EF0100119009
:100AE000A3F226CE1090D0EF0FC904001190DFEFD3
:100AF00001041290D8EFFFE01292DAEF27F001C85C
:100B000081041194A3F214CE03001190DFEF129C24
:100B1000D6EFC0901190A2F2C5F081E01390D6EF0D
:100B20001290DAEF81E01390DAEF01001190A3F256
:100B300000E000F05C0A1080022002700BC8000088
:100B40001190DFEF01001190DEEF02001190A3F28F
:100B500000F0D00B1290D4EF12C9129CD2EFC090CB
:100B60001190A2F2C5F081E01390D2EF1290D4EF71
:100B7000FFE01390D4EF01001190A3F229CE129060
:100B8000D8EF07C800001190DFEF02001190A3F228
:100B90001FCE1090D0EF08C901001190DFEF80A0A8
:100BA000A1F2A0A0A3F214CE03001190DFEF129CDB
:100BB000D6EFC0901190A2F2C5F081E01390D6EF6D
:100BC0001290DAEF81E01390DAEF01001190A3F2B6
:100BD00000E000F05C0A10800220027008C80000EB
:100BE0001190DFEF01001190DEEF020019CE12909C
:100BF000D8EF1292DAEF27F00FC9129CD6EFC0900F
:100C00001190A2F2C5F081E01390D6EF25F081E0BB
:100C10001390DAEF010004CE00001190DFEF020024
:0E0C20001190A3F200E000F05C0A129CD6EFE7
:020C2E00109024
:100C3000A0F2C1901290D6EF81E01390D6EF1290FF
:100C4000DAEF81E01390DAEF1290D8EF1292DAEF38
:100C500027F008C90104FFE027F001C881041194BE
:100C6000A3F206CE00001190DFEF02001190A3F274
:060C700000E000F05C0A48
:0A06460082A0A3F200001190D0EF93
:1006500000E01390D2EF1390D4EF1390D6EF1390E5
:10066000D8EF1390DAEF1390DCEF1190DEEF1190DA
:04067000DFEF1FFE9B
:08007800000000000000000080
:08008000000000000000000078
:0606FA005EF40000119007
:1007000011F0119012F0119013F0119014F011905B
:1007100015F0119016F0119017F0119018F011903B
:1007200019F011901AF011901BF011901CF011901B
:100730001DF011901EF011901FF000E445F046F0FE
:100740008C02030309A292EF81E41F740055F6C5E1
:040750001EF41FFE76
:04036C0008ED1FFE7B
:04036800F7EB1FFE92
:0A0336006EF8008825FA1F7003C15D
:100340007FE02EF81FFE25F206C98080000106F02E
:1003500009AA92EF07CE8080000106F08C02030309
:0803600009A292EF00E0EDCECE
:020006000FFEEB
:02038C001FFE52
:0A067400000106F008A092EF02F06A
:100D9000CEFF6EF0109000F04EF0000001F07406EF
:0A0DA0000EF0119000F02EF08EFF0F
:0A0CE600CEF96EF0109000F04EF011
:100CF000010001F074060EF0119000F02EF08EF954
:020D00000FFEE4
:0C010400CEF96EF0109000F04EF00200FA
:1001100001F074060EF0119000F02EF08EF90FFE33
:10012000CEF96EF0109000F04EF0030001F074066E
:0C0130000EF0119000F02EF08EF90FFE82
:020CAE00CEF97D
:100CB0006EF0109000F04EF0040001F074060EF09B
:0A0CC000119000F02EF08EF90FFEE7
:0400CC00CEF96EF00B
:1000D000109000F04EF0050001F074060EF0119043
:0800E00000F02EF08EF90FFE76
:0800E800CEF96EF0109000F05B
:1000F0004EF0060001F074060EF0119000F02EF0A4
:040100008EF90FFE67
:0A0C7600CEF96EF0109000F04EF081
:100C8000070001F074060EF0119000F02EF08EF9BE
:020C90000FFE55
:0E0C9200CEF96EF0109000F04EF0080001F068
:0E0CA00074060EF0119000F02EF08EF90FFE8B
:020DFE00CEF92C
:100E00006EF0109000F04EF0090001F074060EF044
:0A0E1000119000F02EF08EF90FFE95
:080D5800CEF96EF0109000F0DE
:100D60004EF00A0001F074060EF0119000F02EF023
:040D70008EF90FFEEB
:0E0DE200CEF96EF0109000F04EF00B0001F014
:0E0DF00074060EF0119000F02EF08EF90FFE3A
:060E1A00CEF96EF010900D
:100E200000F04EF00C0001F074060EF0119000F08E
:060E30002EF08EF90FFE0A
:04017C00CEF96EF05A
:10018000109000F04EF00D0001F074060EF011908A
:0801900000F02EF08EF90FFEC5
:08019800CEF96EF0109000F0AA
:1001A0004EF00E0001F074060EF0119000F02EF0EB
:0401B0008EF90FFEB7
:0E025200CEF96EF0109000F04EF00F0001F0AB
:0E02600074060EF0119000F02EF08EF90FFED5
:02026E00CEF9C7
:100270006EF0109000F04EF0100001F074060EF0D9
:0A028000119000F02EF08EF90FFE31
:10016000CEF96EF0109000F04EF0110001F0740620
:0C0170000EF0119000F02EF08EF90FFE42
:04013C00CEF96EF09A
:10014000109000F04EF0120001F074060EF01190C5
:0801500000F02EF08EF90FFE05
:0C01B400CEF96EF0109000F04EF0130039
:1001C00001F074060EF0119000F02EF08EF90FFE83
:060DAA00CEF96EF010907E
:100DB00000F04EF0140001F074060EF0119000F0F7
:060DC0002EF08EF90FFE7B
:0E01D200CEF96EF0109000F04EF0150001F026
:0E01E00074060EF0119000F02EF08EF90FFE56
:0A0DC600CEF96EF0109000F04EF030
:100DD000160001F074060EF0119000F02EF08EF95E
:020DE0000FFE04
:06062A00CEF96EF0109005
:1006300000F04EF0170001F074060EF0119000F07B
:060640002EF08EF90FFE02
:06058A00CEF96EF01090A6
:1005900000F04EF0180001F074060EF0119000F01B
:0605A0002EF08EF90FFEA3
:0A05A600CEF96EF0109000F04EF058
:1005B000190001F074060EF0119000F02EF08EF983
:0205C0000FFE2C
:0E05C200CEF96EF0109000F04EF01A0001F02D
:0E05D00074060EF0119000F02EF08EF90FFE62
:0C0D7400CEF96EF0109000F04EF01B0065
:100D800001F074060EF0119000F02EF08EF90FFEB7
:060CCA00CEF96EF010905F
:100CD00000F04EF01C0001F074060EF0119000F0D0
:060CE0002EF08EF90FFE5C
:1000B000CEF96EF0109000F04EF01D0001F07406C5
:0C00C0000EF0119000F02EF08EF90FFEF3
:10037000CEF96EF0109000F04EF01E0001F0740601
:0C0380000EF0119000F02EF08EF90FFE30
:02000800900D59
:04000C00E60C0600F8
:1000100004012001AE0C0600CC00E800760C920C26
:10002000FE0D0600580D060006000600E20D1A0E31
:10003000060006007C019801060006000600060086
:1000400052026E02060006000600060060013C0136
:100050000600060006000600B401AA0DD201C60D76
:100060002A068A05A605C2050600740D0600CA0CFC
:08007000B00006000600700359
:02067E0001F089
:10068000580801F0220381A060F203C982A060F241
:1006900002CE80A060F26000EA0101F08A026000F0
:1006A000EA0101F08A026000EA0101F08A0200001A
:1006B0001190FFEF01F046068E0003015EF002E0AC
:1006C0005EF0E600EF015EF002E05EF0EC02EF03A8
:1006D0001090E0EF01F09E0208E104CE01F0D0019D
:1006E00001F022031090FFEF0170F8C81090E6EFC0
:0A06F0000070C7C3A0A060F2C4CEE2
:0E0322005A0011900EF081A00EF0FAC9A5004D
:0603300011900EF01FFE0B
:0201D0001FFE10
:08085800CEF880A02AF0A2A056
:100860002AF0B0A02AF0E0A02AF0F2A02AF00000BE
:1008700011902CF011902EF011902FF001F0DE0568
:1008800001F0A00301F0540701F0EE0101F0020DA8
:1008900000001190E0F81190E1F892A0E1F880A03A
:1008A000E1F8D2A0E2F8F2A0E2F882A0E3F801F0C9
:1008B000680301F0FA060000119017F0119016F08D
:1008C000119015F0119014F0119013F0119012F096
:1008D000119011F0119010F011901FF011901EF076
:1008E00011901DF011901CF011901BF011901AF056
:1008F000119019F0119018F0B2A017F008020A0335
:100900000C0001F03603F0A012F0F0A01AF080A065
:1009100014F001F06C03030011900FF001F02203BA
:1009200000004EF040021F03010001F0640402E1E8
:1009300000001190FFEF01F046068E0003015EF00B
:1009400001E05EF0E300EF015EF001E05EF0E10245
:10095000EF031090E0EF01F0C60E08E102CE01F0C7
:1009600022031090FFEF0170FAC8E800030101F0C4
:100970008A0200001190FFEF01F046068E0003018D
:100980005EF001E05EF0E200EF015EF001E05EF09B
:10099000E102EF031090E0EF01F0C60E08E102CE95
:1009A00001F022031090FFEF0170FAC8E800030184
:1009B00001F08A0200001190FFEF01F046068E0060
:1009C00003015EF001E05EF0E500EF015EF001E0A2
:1009D0005EF0E402EF031090E0EF01F0C60E08E1D4
:1009E00002CE01F022031090FFEF0170FAC8E80078
:0C09F000030101F08A0201F0220D8EF2DA
:02038E00CEF8A7
:1003900001F0140A01001190FFEF01F058018EF2F4
:080A0800CEF801F0140A01F020
:040A100058018EF209
:0801580001001190FEEF1FFEF3
:0E0D020082A002F092A002F0B0A002F0A2A027
:100D100002F090A003F080A003F0F0A003F008ED33
:020D20001FFEB4
:0205DE0082A0F9
:1005E00051F292A051F2A2A051F280A053F280A049
:1005F00052F290A053F290A052F2A0A053F2A0A009
:1006000052F282A055F282A054F292A055F292A02A
:1006100054F2A2A055F2A2A054F282A050F292A0ED
:0A06200050F2A2A050F200F02203F5
:1003A00082A059F292A059F2A2A059F2B2A059F239
:1003B000C2A059F2D2A059F2E2A059F2F2A059F229
:1003C00080A05BF280A05AF290A05BF290A05AF25B
:1003D000A0A05BF2A0A05AF2B0A05BF2B0A05AF2CB
:1003E000C0A05BF2C0A05AF2D0A05BF2D0A05AF23B
:1003F000E0A05BF2E0A05AF2F0A05BF2F0A05AF2AB
:1004000082A05DF282A05CF292A05DF292A05CF20A
:10041000A2A05DF2A2A05CF2B2A05DF2B2A05CF27A
:10042000C2A05DF2C2A05CF2D2A05DF2D2A05CF2EA
:10043000E2A05DF2E2A05CF2F2A05DF2F2A05CF25A
:1004400082A058F292A058F2A2A058F2B2A058F29C
:10045000C2A058F2D2A058F2E2A058F2F2A058F28C
:0404600000F0220383
:0C07540082A061F292A061F2A2A061F20A
:10076000B2A061F2C2A061F2D2A061F2E2A061F295
:10077000F2A061F280A063F280A062F290A063F226
:1007800090A062F2A0A063F2A0A062F2B0A063F217
:10079000B0A062F2C0A063F2C0A062F2D0A063F287
:1007A000D0A062F2E0A063F2E0A062F2F0A063F2F7
:1007B000F0A062F282A065F282A064F292A065F2DB
:1007C00092A064F2A2A065F2A2A064F2B2A065F2C7
:1007D000B2A064F2C2A065F2C2A064F2D2A065F237
:1007E000D2A064F2E2A065F2E2A064F2F2A065F2A7
:1007F000F2A064F282A060F292A060F2A2A060F285
:10080000B2A060F2C2A060F2D2A060F2E2A060F2F8
:08081000F2A060F200F02203E7
:0201EE0082A0ED
:1001F00069F292A069F2A2A069F2B2A069F2C2A06B
:1002000069F2D2A069F280A06BF280A06AF290A09D
:100210006BF290A06AF2A0A06BF2A0A06AF2B0A06C
:100220006BF2B0A06AF2C0A06BF2C0A06AF2D0A0DC
:100230006BF2D0A06AF282A068F292A068F2A2A04B
:1002400068F2B2A068F2C2A068F2D2A068F200F030
:02025000220387
:0E0D2200D0A076F992A061F290A063F290A0AA
:100D300062F290A065F292A064F290A072F982A093
:100D400072F9AC000101139060F9D6000001139014
:080D500064F980A073F91FFE95
:06028A005EF805F800E03B
:0E02900085F201CE81E027F0FDC11EF81FFEB1
:02000200360EB8
:080088005CFF0304F0FD000021
:0B009000010203040506070809FA003E
:01009B000064
:0200000090EF7F
:02000400380EB4
:0A0E360001CEFFCE00E000E200E470
:100E400000E60008E0098AF0579088E8F079FCC1D4
:100E50000078FAC15A0CA50D119C0EF081A00EF07D
:100E6000FBC9119D0EF0000A0CF0A600AF90529045
:100E7000FF7002C8FF7120C9AF905292AF90529498
:100E8000AF905096AF90509780E4F0C901A20BC884
:100E900001A409C86F90029882E07F90239882E2B3
:100EA000FEE4F8C8E3CE6F90009881E07F9021982F
:100EB00081E2FFE4F8C8DACE01F00A0000001190E8
:060EC00000F000F07E06C8
:02000A001FFED7
:0800A6007800D0EF2E000000ED
:0200AE00FFFF52
:107FE000FFFFFFFFFFFFFFFFFFFFFFFFFFFFFFFFA1
:107FF000FFFFFFFFFFFFFFFFFFFFFFFFFFFFFFFF91
:04009C000000000060
:0600A0000000000000005A
:0409FC00CEF86EF8CB
:080A000001F018082EF88EF237
:08081800007302C829F01BCE99
:100820006EF405F825FA1D981C991D9A1C9B007BF7
:10083000FAC8A9F88084208844F8308644F6618993
:1008400007F803C328883989FF148880998105F245
:08085000408000012EF41FFEA0
:00000001FF
