:0A047600CEF85EFE1AAE6EF86EF4CA
:10048000008825FA44D0017006C37FE02EF42EF8D0
:10049000EAA11EFE8EF2007805C85004000564062D
:1004A000000707CE017802C900F0900514E4900619
:1004B0000107A5F045F201F0C80A67F002C200008A
:1004C0002ECE45F02B912A9046F006F046F00A0217
:1004D00029F005F2A5F001F0C80A67F002C2010098
:1004E0001ECE45F046F046F02B912A900A0229F0E4
:1004F00005F2A5F001F0C80A67F002C202000FCEB3
:1005000045F046F046F02B912A9046F00A0229F079
:1005100005F2A5F001F0C80A67F03DC203000082B1
:1005200000001190BEEF00E01390C0EF1390C2EFF7
:100530001390C4EF1390C6EF1390C8EF1390CAEF57
:100540001190CCEF1190CDEF82A0A4F2D2A059F27D
:10055000D2A05AF2D0A05BF2D2A05CF2D0A05DF2A1
:10056000E2A059F2E2A05AF2E0A05BF2E2A05CF253
:10057000E0A05DF280801A9020812A91038144D00E
:100580004A90138001301190A4F200E000F08C0436
:0C0590007EE000F08C047DE000F08C04A4
:0E0F92005EFE1AAE5EF8008800001190BEEF01
:100FA0001392C0EF42B01390C2EF44B01390C4EF5D
:100FB00046B01390C6EF00E01390C8EF48B013900E
:100FC000CAEF00001190CCEF1190CDEF1290C2EF5C
:100FD00008C81290C6EF05C801E01EF8EAA11EFE7F
:100FE0001FFE1090A5F20120017002C87FE0F5CE2F
:100FF00001001190CDEF80801A901190A1F20100B4
:081000001190A3F200E0E9CE1B
:1002B0005EFE1AAE5EF8008801001190BEEF139248
:1002C000C0EF42B01390C2EF44B01390C4EF46B0F9
:1002D0001390C6EF00E01390C8EF48B01390CAEF38
:1002E00000001190CCEF1190CDEF1290C2EF08C832
:1002F0001290C6EF05C801E01EF8EAA11EFE1FFE1F
:100300001090A5F20120017002C87FE0F5CE010037
:100310001190CDEF1290C2EF04C880801A90013086
:1003200002CE80801A901190A1F201001190A3F2E8
:0403300000E0E2CE39
:100AE000CEF85EFC5EF41090A5F200811090CDEF80
:100AF0000EC901701CC9027002C800F0020C03701C
:100B000002C800F0A20C047002C800F0F60C1290AB
:100B1000CAEF09C905F400E01390CAEF1092CCEFB8
:100B20001290C8EF43F001E01EF41EFC8EF210801C
:100B30000420047017C800001190CDEF020011903E
:100B4000CCEF00001190A3F21290CAEF09C905F48E
:100B500000E01390CAEF1092CCEF1290C8EF43F070
:100B600001E0E2CE1080022002700AC8000011905D
:100B7000CDEF01001190CCEF02001190A3F23ECE18
:100B80001290C2EF15C902001190CDEF129CC0EF78
:100B9000C0901190A2F2C5F081E01390C0EF1290C6
:100BA000C2EFFFE01390C2EF01001190A3F226CE36
:100BB0001090BEEF0FC904001190CDEF0104129008
:100BC000C6EFFFE01292C8EF27F001C8810411942C
:100BD000A3F214CE03001190CDEF129CC4EFC0908D
:100BE0001190A2F2C5F081E01390C4EF1290C8EF0B
:100BF00081E01390C8EF01001190A3F200E000F033
:100C0000280B1080022002700BC800001190CDEF5D
:100C100001001190CCEF02001190A3F200F09C0CA7
:100C20001290C2EF12C9129CC0EFC0901190A2F2B4
:100C3000C5F081E01390C0EF1290C2EFFFE0139077
:100C4000C2EF01001190A3F229CE1290C6EF07C89F
:100C500000001190CDEF02001190A3F21FCE109072
:100C6000BEEF08C901001190CDEF80A0A1F2A0A0B5
:100C7000A3F214CE03001190CDEF129CC4EFC090EC
:100C80001190A2F2C5F081E01390C4EF1290C8EF6A
:100C900081E01390C8EF01001190A3F200E000F092
:100CA000280B10800220027008C800001190CDEFC0
:100CB00001001190CCEF020019CE1290C6EF1292F3
:100CC000C8EF27F00FC9129CC4EFC0901190A2F298
:100CD000C5F081E01390C4EF25F081E01390C8EFD8
:100CE000010004CE00001190CDEF02001190A3F29C
:0A0CF00000E000F0280B129CC4EF96
:060CFA001090A0F2C19071
:100D00001290C4EF81E01390C4EF1290C8EF81E01D
:100D10001390C8EF1290C6EF1292C8EF27F008C9DF
:100D20000104FFE027F001C881041194A3F206CE6C
:100D300000001190CDEF02001190A3F200E000F04E
:020D4000280B7E
:0806580082A0A3F20000119042
:10066000BEEF00E01390C0EF1390C2EF1390C4EF01
:100670001390C6EF1390C8EF1390CAEF1190CCEF10
:060680001190CDEF1FFEFA
:08007800000000000000000080
:08008000000000000000000078
:080728005EF40000119011F0D5
:10073000119012F0119013F0119014F0119015F027
:10074000119016F0119017F0119018F0119019F007
:1007500011901AF011901BF011901CF011901DF0E7
:1007600011901EF011901FF000E445F046F09E023B
:10077000030309A27CEF81E41F740055F6C51EF443
:020780001FFE5A
:02037E0008ED88
:020380001FFE5E
:04037A00F7EB1FFE80
:080348006EF8008825FA1F7011
:1003500003C17FE02EF81FFE25F206C98080000150
:1003600006F009AA7CEF07CE8080000106F09E020D
:0A037000030309A27CEF00E0EDCECC
:020006000FFEEB
:02039E001FFE40
:0A068600000106F008A07CEF02F06E
:040E5C00CEFF6EF067
:100E6000109000F04EF0000001F086060EF0119098
:060E700000F02EF08EFFE1
:0E0DB200CEF96EF0109000F04EF0010001F04E
:0E0DC00086060EF0119000F02EF08EF90FFE58
:0A011600CEF96EF0109000F04EF0EC
:10012000020001F086060EF0119000F02EF08EF91C
:020130000FFEC0
:0E013200CEF96EF0109000F04EF0030001F0D8
:0E01400086060EF0119000F02EF08EF90FFEE4
:060D7A00CEF96EF01090AE
:100D800000F04EF0040001F086060EF0119000F025
:060D90002EF08EF90FFEAB
:0200DE00CEF959
:1000E0006EF0109000F04EF0050001F086060EF064
:0A00F000119000F02EF08EF90FFEC3
:0600FA00CEF96EF010903B
:1001000000F04EF0060001F086060EF0119000F0AF
:060110002EF08EF90FFE37
:0E0D4200CEF96EF0109000F04EF0070001F0B8
:0E0D500086060EF0119000F02EF08EF90FFEC8
:020D5E00CEF9CC
:100D60006EF0109000F04EF0080001F086060EF0D4
:0A0D7000119000F02EF08EF90FFE36
:060ECA00CEF96EF010905D
:100ED00000F04EF0090001F086060EF0119000F0CF
:060EE0002EF08EF90FFE5A
:0C0E2400CEF96EF0109000F04EF00A00C5
:100E300001F086060EF0119000F02EF08EF90FFEF4
:020EAE00CEF97B
:100EB0006EF0109000F04EF00B0001F086060EF080
:0A0EC000119000F02EF08EF90FFEE5
:0A0EE600CEF96EF0109000F04EF00F
:100EF0000C0001F086060EF0119000F02EF08EF935
:020F00000FFEE2
:02018E00CEF9A8
:100190006EF0109000F04EF00D0001F086060EF0AB
:0A01A000119000F02EF08EF90FFE12
:0601AA00CEF96EF010908A
:1001B00000F04EF00E0001F086060EF0119000F0F7
:0601C0002EF08EF90FFE87
:0C026400CEF96EF0109000F04EF00F008C
:1002700001F086060EF0119000F02EF08EF90FFEC0
:10028000CEF96EF0109000F04EF0100001F08606EE
:0C0290000EF0119000F02EF08EF90FFE21
:0E017200CEF96EF0109000F04EF0110001F08A
:0E01800086060EF0119000F02EF08EF90FFEA4
:02014E00CEF9E8
:100150006EF0109000F04EF0120001F086060EF0E6
:0A016000119000F02EF08EF90FFE52
:0A01C600CEF96EF0109000F04EF03C
:1001D000130001F086060EF0119000F02EF08EF95B
:0201E0000FFE10
:0A0E7600CEF96EF0109000F04EF07F
:100E8000140001F086060EF0119000F02EF08EF99D
:020E90000FFE53
:0C01E400CEF96EF0109000F04EF0150007
:1001F00001F086060EF0119000F02EF08EF90FFE41
:0E0E9200CEF96EF0109000F04EF0160001F058
:0E0EA00086060EF0119000F02EF08EF90FFE77
:04063C00CEF96EF095
:10064000109000F04EF0170001F086060EF01190A9
:0806500000F02EF08EF90FFE00
:04059C00CEF96EF036
:1005A000109000F04EF0180001F086060EF0119049
:0805B00000F02EF08EF90FFEA1
:0805B800CEF96EF0109000F086
:1005C0004EF0190001F086060EF0119000F02EF0AA
:0405D0008EF90FFE93
:0C05D400CEF96EF0109000F04EF01A000E
:1005E00001F086060EF0119000F02EF08EF90FFE4D
:100E4000CEF96EF0109000F04EF01B0001F0860617
:0C0E50000EF0119000F02EF08EF90FFE55
:0A0D9600CEF96EF0109000F04EF060
:100DA0001C0001F086060EF0119000F02EF08EF976
:020DB0000FFE34
:0E00C200CEF96EF0109000F04EF01D0001F02F
:0E00D00086060EF0119000F02EF08EF90FFE55
:0E038200CEF96EF0109000F04EF01E0001F06B
:0E03900086060EF0119000F02EF08EF90FFE92
:020008005C0E8C
:04000C00B20D06002B
:10001000160132017A0D0600DE00FA00420D5E0D77
:10002000CA0E0600240E060006000600AE0EE60EFE
:10003000060006008E01AA01060006000600060062
:1000400064028002060006000600060072014E01EE
:100050000600060006000600C601760EE401920EB8
:100060003C069C05B805D4050600400E0600960D1A
:08007000C20006000600820335
:1006900001F0860801F0340390A058F291A058F2BE
:1006A0000CC9A0A060F26000EA0101F09C026000A9
:1006B000EA0101F09C02A2A060F200001190FFEF9D
:1006C00001F05806A00003015EF001E05EF0BA0000
:1006D000EF015EF001E05EF0E302EF031090CEEF79
:1006E00001F0B00208E104CE01F0E20101F03403B0
:1006F0001090FFEF0170F8C880A060F21090BAEF80
:100700000070C8C380A060F26000EA0101F09C02A2
:100710006000EA0101F09C026000EA0101F09C0225
:0807200082A060F200F09406D3
:0C0334005A0011900EF081A00EF0FAC9E2
:08034000A50011900EF01FFE54
:0201E2001FFEFE
:0A088600CEF880A02AF0A2A02AF00C
:10089000B0A02AF0E0A02AF0F2A02AF00000119007
:1008A0002CF011902EF011902FF001F0F00501F0D6
:1008B000B20301F0820701F0000201F0CE0D00004A
:1008C0001190E0F81190E1F892A0E1F880A0E1F831
:1008D000D2A0E2F8F2A0E2F882A0E3F801F07A03F5
:1008E00001F028070000119017F0119016F01190F8
:1008F00015F0119014F0119013F0119012F0119066
:1009000011F0119010F011901FF011901EF0119045
:100910001DF011901CF011901BF011901AF0119025
:1009200019F0119018F0B2A017F0D4020A030C00CD
:1009300001F04803F0A012F0F0A01AF080A014F02B
:1009400001F07E03030011900FF001F0340300006A
:100950004EF040021F03010001F0760402E10000A6
:100960001190FFEF01F05806A00003015EF001E0D6
:100970005EF0E900EF015EF001E05EF0D602EF0309
:100980001090CEEF01F0920F08E102CE01F0340397
:100990001090FFEF0170FAC800001190FFEF01F016
:1009A0005806A00003015EF001E05EF0EA00EF01EE
:1009B0005EF001E05EF0D802EF031090CEEF01F0A0
:1009C000920F08E102CE01F034031090FFEF0170A6
:1009D000FAC800001190FFEF01F05806A0000301D3
:1009E0005EF001E05EF0EB00EF015EF001E05EF032
:1009F000DB02EF031090CEEF01F0920F08E102CE80
:100A000001F034031090FFEF0170FAC8000011905C
:100A1000FFEF01F05806A00003015EF001E05EF078
:100A2000EC00EF015EF001E05EF0DD02EF031090FC
:0E0A3000CEEF01F0920F08E102CE01F0340388
:020A3E00109016
:100A4000FFEF0170FAC800001190FFEF01F05806A7
:100A5000A00003015EF001E05EF0EF00EF015EF048
:100A600001E05EF0CF02EF031090CEEF01F0920FA5
:100A700008E102CE01F034031090FFEF0170FAC8D4
:100A800000001190FFEF01F05806A00003015EF096
:100A900001E05EF0EE00EF015EF001E05EF0CF02FB
:100AA000EF031090CEEF01F0920F08E102CE01F0BB
:100AB00034031090FFEF0170FAC8E800030101F061
:080AC0009C0201F0EE0D8EF224
:1003A000CEF801F0E00A01001190FFEF01F06A01C0
:0203B0008EF2CB
:0C0AD400CEF801F0E00A01F06A018EF299
:06016A0001001190FEEF00
:020170001FFE70
:020DCE0082A001
:100DD00002F092A002F0B0A002F0A2A002F090A057
:0E0DE00003F080A003F0F0A003F008ED1FFE6A
:1005F00082A051F292A051F2A2A051F280A053F237
:1006000080A052F290A053F290A052F2A0A053F218
:10061000A0A052F282A055F282A054F292A055F20C
:1006200092A054F2A2A055F2A2A054F282A050F2DD
:0C06300092A050F2A2A050F200F034039F
:0E03B20082A059F292A059F2A2A059F2B2A074
:1003C00059F2C2A059F2D2A059F2E2A059F2F2A019
:1003D00059F280A05BF280A05AF290A05BF290A04C
:1003E0005AF2A0A05BF2A0A05AF2B0A05BF2B0A0BB
:1003F0005AF2C0A05BF2C0A05AF2D0A05BF2D0A02B
:100400005AF2E0A05BF2E0A05AF2F0A05BF2F0A09A
:100410005AF282A05DF282A05CF292A05DF292A0FC
:100420005CF2A2A05DF2A2A05CF2B2A05DF2B2A06A
:100430005CF2C2A05DF2C2A05CF2D2A05DF2D2A0DA
:100440005CF2E2A05DF2E2A05CF2F2A05DF2F2A04A
:100450005CF282A058F292A058F2A2A058F2B2A088
:1004600058F2C2A058F2D2A058F2E2A058F2F2A07C
:0604700058F200F0340315
:0E07820082A061F292A061F2A2A061F2B2A088
:1007900061F2C2A061F2D2A061F2E2A061F2F2A025
:1007A00061F280A063F280A062F290A063F290A058
:1007B00062F2A0A063F2A0A062F2B0A063F2B0A0C7
:1007C00062F2C0A063F2C0A062F2D0A063F2D0A037
:1007D00062F2E0A063F2E0A062F2F0A063F2F0A0A7
:1007E00062F282A065F282A064F292A065F292A009
:1007F00064F2A2A065F2A2A064F2B2A065F2B2A077
:1008000064F2C2A065F2C2A064F2D2A065F2D2A0E6
:1008100064F2E2A065F2E2A064F2F2A065F2F2A056
:1008200064F282A060F292A060F2A2A060F2B2A094
:1008300060F2C2A060F2D2A060F2E2A060F2F2A088
:0608400060F200F0340339
:1002000082A069F292A069F2A2A069F2B2A069F29A
:10021000C2A069F2D2A069F280A06BF280A06AF25B
:1002200090A06BF290A06AF2A0A06BF2A0A06AF27C
:10023000B0A06BF2B0A06AF2C0A06BF2C0A06AF2EC
:10024000D0A06BF2D0A06AF282A068F292A068F20D
:10025000A2A068F2B2A068F2C2A068F2D2A068F2CE
:0402600000F0340373
:020DEE00D0A093
:100DF00076F992A061F290A063F290A062F290A0C6
:100E000065F292A064F290A072F982A072F9AC002F
:100E10000101139060F9D6000001139064F980A0DD
:040E200073F91FFE45
:04029C005EF805F80B
:1002A00000E085F201CE81E027F0FDC11EF81FFEBF
:02000200020FEB
:080088005CFF10C0C1C2C3C43B
:10009000C8C9CACBCCCDCECF0001020304050607E8
:0D00A0000809FA077F7E1F000304F000002E
:0100AD000052
:020000007AEF95
:02000400040FE7
:0E0F020001CEFFCE00E000E200E400E60008B1
:100F1000E0098AF0579088E8F079FCC10078FAC1BE
:100F20005A0CA50D119C0EF081A00EF0FBC9119D6D
:100F30000EF0000A0CF0B800AF905290FF7002C89B
:100F4000FF7120C9AF905292AF905294AF905096DB
:100F5000AF90509780E4F0C901A20BC801A409C862
:100F60006F90029882E07F90239882E2FEE4F8C8B6
:100F7000E3CE6F90009881E07F90219881E2FFE4BA
:100F8000F8C8DACE01F00A000000119000F000F07D
:020F90009006C9
:02000A001FFED7
:0800B8007800BEEF40000000DB
:0200C000FFFF40
:107FE000FFFFFFFFFFFFFFFFFFFFFFFFFFFFFFFFA1
:107FF000FFFFFFFFFFFFFFFFFFFFFFFFFFFFFFFF91
:0200AE00000050
:0800B000000000000000000048
:080AC800CEF86EF801F04608BB
:040AD0002EF88EF27C
:0A084600007302C829F01BCE6EF407
:1008500005F825FA1D981C991D9A1C9B007BFAC867
:10086000A9F88084208844F8308644F6618907F826
:1008700003C328883989FF148880998105F2408054
:0608800000012EF41FFE32
:00000001FF
