:0203DE00CEF857
:1003E0005EFE1AAE6EF86EF4008825FA44D00170F5
:1003F00006C37FE02EF42EF8EAA11EFE8EF20078EE
:1004000005C8500400056406000707CE017802C93C
:1004100000F0F80414E490060107A5F045F201F09D
:10042000940867F002C200002ECE45F02B912A906E
:1004300046F006F046F00A0229F005F2A5F001F0B8
:10044000940867F002C201001ECE45F046F046F067
:100450002B912A900A0229F005F2A5F001F09408E8
:1004600067F002C202000FCE45F046F046F02B9135
:100470002A9046F00A0229F005F2A5F001F094084E
:1004800067F03DC20300008200001190D4EF00E04D
:100490001390D6EF1390D8EF1390DAEF1390DCEFB0
:1004A0001390DEEF1390E0EF1190E2EF1190E3EF85
:1004B00082A0A4F2D2A059F2D2A05AF2D0A05BF24C
:1004C000D2A05CF2D0A05DF2E2A059F2E2A05AF212
:1004D000E0A05BF2E2A05CF2E0A05DF280801A9006
:1004E00020812A91038144D04A90138001301190D9
:1004F000A4F200E000F0F4037EE000F0F4037DE0FD
:0405000000F0F40310
:020D5E005EFE37
:100D60001AAE5EF8008800001190D4EF1392D6EF0F
:100D700042B01390D8EF44B01390DAEF46B013901E
:100D8000DCEF00E01390DEEF48B01390E0EF0000DE
:100D90001190E2EF1190E3EF1290D8EF08C8129093
:100DA000DCEF05C801E01EF8EAA11EFE1FFE109050
:100DB000A5F20120017002C87FE0F5CE010011907C
:100DC000E3EF80801A901190A1F201001190A3F23C
:040DD00000E0E9CE88
:0408AC00CEF85EFC28
:1008B0005EF41090A5F200811090E3EF0EC9017074
:1008C0001CC9027002C800F0CE09037002C800F013
:1008D0006E0A047002C800F0C20A1290E0EF09C963
:1008E00005F400E01390E0EF1092E2EF1290DEEFDB
:1008F00043F001E01EF41EFC8EF210800420047010
:1009000017C800001190E3EF02001190E2EF000021
:100910001190A3F21290E0EF09C905F400E01390E2
:10092000E0EF1092E2EF1290DEEF43F001E0E2CE52
:100930001080022002700AC800001190E3EF01004D
:100940001190E2EF02001190A3F23ECE1290D8EF88
:1009500015C902001190E3EF129CD6EFC0901190E0
:10096000A2F2C5F081E01390D6EF1290D8EFFFE02D
:100970001390D8EF01001190A3F226CE1090D4EF7F
:100980000FC904001190E3EF01041290DCEFFFE0C7
:100990001292DEEF27F001C881041194A3F214CE65
:1009A00003001190E3EF129CDAEFC0901190A2F2D5
:1009B000C5F081E01390DAEF1290DEEF81E0139042
:1009C000DEEF01001190A3F200E000F0F4081080C7
:1009D000022002700BC800001190E3EF010011909B
:1009E000E2EF02001190A3F200F0680A1290D8EF33
:1009F00012C9129CD6EFC0901190A2F2C5F081E00E
:100A00001390D6EF1290D8EFFFE01390D8EF0100CB
:100A10001190A3F229CE1290DCEF07C800001190CC
:100A2000E3EF02001190A3F21FCE1090D4EF08C99B
:100A300001001190E3EF80A0A1F2A0A0A3F214CED8
:100A400003001190E3EF129CDAEFC0901190A2F234
:100A5000C5F081E01390DAEF1290DEEF81E01390A1
:100A6000DEEF01001190A3F200E000F0F408108026
:100A70000220027008C800001190E3EF01001190FD
:100A8000E2EF020019CE1290DCEF1292DEEF27F0B7
:100A90000FC9129CDAEFC0901190A2F2C5F081E06C
:100AA0001390DAEF25F081E01390DEEF010004CE21
:100AB00000001190E3EF02001190A3F200E000F0BB
:060AC000F408129CDAEFBD
:0A0AC6001090A0F2C1901290DAEF38
:100AD00081E01390DAEF1290DEEF81E01390DEEF09
:100AE0001290DCEF1292DEEF27F008C90104FFE05C
:100AF00027F001C881041194A3F206CE00001190E2
:0E0B0000E3EF02001190A3F200E000F0F40811
:1005C00082A0A3F200001190D4EF00E01390D6EFC8
:1005D0001390D8EF1390DAEF1390DCEF1390DEEF67
:0E05E0001390E0EF1190E2EF1190E3EF1FFE99
:08007800000000000000000080
:08008000000000000000000078
:02061E005EF488
:100620000000119011F0119012F0119013F0119040
:1006300014F0119015F0119016F0119017F0119020
:1006400018F0119019F011901AF011901BF0119000
:100650001CF011901DF011901EF011901FF000E49D
:1006600045F046F00602030309A296EF81E41F74E9
:080670000055F6C51EF41FFE43
:0402E60008ED1FFE02
:0402E200F7EB1FFE19
:1002B0006EF8008825FA1F7003C17FE02EF81FFE3C
:1002C00025F206C98080000106F009AA96EF07CE44
:1002D0008080000106F00602030309A296EF00E009
:0202E000EDCE61
:020006000FFEEB
:020306001FFED8
:0205EE0000010A
:0805F00006F008A096EF02F0EE
:080C2800CEFF6EF0109000F009
:100C30004EF0000001F0EE050EF0119000F02EF0E5
:020C40008EFF25
:020B7E00CEF9AE
:100B80006EF0109000F04EF0010001F0EE050EF056
:0A0B9000119000F02EF08EF90FFE18
:10010000CEF96EF0109000F04EF0020001F0EE0516
:0C0110000EF0119000F02EF08EF90FFEA2
:04011C00CEF96EF0BA
:10012000109000F04EF0030001F0EE050EF011907B
:0801300000F02EF08EF90FFE25
:0A0B4600CEF96EF0109000F04EF0B2
:100B5000040001F0EE050EF0119000F02EF08EF979
:020B60000FFE86
:0800C800CEF96EF0109000F07B
:1000D0004EF0050001F0EE050EF0119000F02EF04C
:0400E0008EF90FFE88
:0C00E400CEF96EF0109000F04EF0060017
:1000F00001F0EE050EF0119000F02EF08EF90FFEDB
:020B0E00CEF91E
:100B10006EF0109000F04EF0070001F0EE050EF0C0
:0A0B2000119000F02EF08EF90FFE88
:060B2A00CEF96EF0109000
:100B300000F04EF0080001F0EE050EF0119000F00C
:060B40002EF08EF90FFEFD
:0A0C9600CEF96EF0109000F04EF061
:100CA000090001F0EE050EF0119000F02EF08EF923
:020CB0000FFE35
:100BF000CEF96EF0109000F04EF00A0001F0EE0514
:0C0C00000EF0119000F02EF08EF90FFEA7
:060C7A00CEF96EF01090AF
:100C800000F04EF00B0001F0EE050EF0119000F0B8
:060C90002EF08EF90FFEAC
:0E0CB200CEF96EF0109000F04EF00C0001F044
:0E0CC000EE050EF0119000F02EF08EF90FFEF2
:08017800CEF96EF0109000F0CA
:100180004EF00D0001F0EE050EF0119000F02EF093
:040190008EF90FFED7
:0C019400CEF96EF0109000F04EF00E005E
:1001A00001F0EE050EF0119000F02EF08EF90FFE2A
:0C026400CEF96EF0109000F04EF00F008C
:1002700001F0EE050EF0119000F02EF08EF90FFE59
:10028000CEF96EF0109000F04EF0100001F0EE0587
:0C0290000EF0119000F02EF08EF90FFE21
:04015C00CEF96EF07A
:10016000109000F04EF0110001F0EE050EF011902D
:0801700000F02EF08EF90FFEE5
:08013800CEF96EF0109000F00A
:100140004EF0120001F0EE050EF0119000F02EF0CE
:040150008EF90FFE17
:1001B000CEF96EF0109000F04EF0130001F0EE0555
:0C01C0000EF0119000F02EF08EF90FFEF2
:0E0C4200CEF96EF0109000F04EF0140001F0AC
:0E0C5000EE050EF0119000F02EF08EF90FFE62
:0C01E400CEF96EF0109000F04EF0150007
:1001F00001F0EE050EF0119000F02EF08EF90FFEDA
:020C5E00CEF9CD
:100C60006EF0109000F04EF0160001F0EE050EF060
:0A0C7000119000F02EF08EF90FFE37
:0C05A400CEF96EF0109000F04EF0170041
:1005B00001F0EE050EF0119000F02EF08EF90FFE16
:0C050400CEF96EF0109000F04EF01800E0
:1005100001F0EE050EF0119000F02EF08EF90FFEB6
:10052000CEF96EF0109000F04EF0190001F0EE05DB
:0C0530000EF0119000F02EF08EF90FFE7E
:04053C00CEF96EF096
:10054000109000F04EF01A0001F0EE050EF0119040
:0805500000F02EF08EF90FFE01
:040C0C00CEF96EF0BF
:100C1000109000F04EF01B0001F0EE050EF0119068
:080C200000F02EF08EF90FFE2A
:0E0B6200CEF96EF0109000F04EF01C0001F085
:0E0B7000EE050EF0119000F02EF08EF90FFE43
:0400AC00CEF96EF02B
:1000B000109000F04EF01D0001F0EE050EF01190D2
:0800C00000F02EF08EF90FFE96
:0602EA00CEF96EF0109049
:1002F00000F04EF01E0001F0EE050EF0119000F03F
:060300002EF08EF90FFE45
:02000800280CC2
:04000C007E0B060061
:1000100000011C01460B0600C800E4000E0B2A0B71
:10002000960C0600F00B0600060006007A0CB20CD7
:10003000060006007801940106000600060006008E
:100040006402800206000600060006005C0138011A
:100050000600060006000600B001420CE4015E0C3A
:10006000A405040520053C0506000C0C0600620BE7
:08007000AC0006000600EA02E4
:0805F80001F07C0701F09C02F8
:1006000081A060F203C982A060F202CE80A060F2F5
:0E06100001F0CC0101F0CC0101F0CC01EFCEE5
:04029C005A00119063
:1002A0000EF081A00EF0FAC9A50011900EF01FFE0D
:0401CC005EF400E4F9
:1001D00001CE81E400E26074EA5500520053F9C593
:0401E0001EF41FFEEC
:04077C00CEF880A093
:100780002AF0A2A02AF0B0A02AF0E0A02AF0F2A05D
:100790002AF0000011902CF011902EF011902FF003
:1007A00001F0580501F01A0301F0780601F000028B
:1007B00001F09A0B00001190E0F81190E1F892A07E
:1007C000E1F880A0E1F8D2A0E2F8F2A0E2F882A07D
:1007D000E3F801F0E20201F01E060000119017F0AC
:1007E000119016F0119015F0119014F0119013F073
:1007F000119012F0119011F0119010F011901FF063
:1008000011901EF011901DF011901CF011901BF032
:1008100011901AF0119019F0119018F0B2A017F081
:10082000A00208030C0001F0B002F0A012F0F0A04A
:100830001AF080A014F001F0E602030011900FF00E
:1008400001F09C0200004EF040021F03010001F085
:10085000DE0302E100001190FFEF01F0C005080087
:1008600003015EF001E05EF0F200EF015EF001E0F6
:100870005EF0F102EF031090E4EF01F05E0D08E18D
:1008800002CE01F09C021090FFEF0170FAC801F057
:04089000BA0B8EF21F
:08030800CEF801F0AC08010081
:0A0310001190FFEF01F054018EF28E
:0C08A000CEF801F0AC0801F054018EF21B
:0801540001001190FEEF1FFEF7
:060B9A0082A002F092A00F
:100BA00002F0B0A002F0A2A002F090A003F080A09A
:0A0BB00003F0F0A003F008ED1FFEB3
:0805580082A051F292A051F2C1
:10056000A2A051F280A053F280A052F290A053F2C8
:1005700090A052F2A0A053F2A0A052F282A055F295
:1005800082A054F292A055F292A054F2A2A055F289
:10059000A2A054F282A050F292A050F2A2A050F277
:0405A00000F09C02C9
:06031A0082A059F292A03E
:1003200059F2A2A059F2B2A059F2C2A059F2D2A039
:1003300059F2E2A059F2F2A059F280A05BF280A03B
:100340005AF290A05BF290A05AF2A0A05BF2A0A09B
:100350005AF2B0A05BF2B0A05AF2C0A05BF2C0A00B
:100360005AF2D0A05BF2D0A05AF2E0A05BF2E0A07B
:100370005AF2F0A05BF2F0A05AF282A05DF282A0E5
:100380005CF292A05DF292A05CF2A2A05DF2A2A04B
:100390005CF2B2A05DF2B2A05CF2C2A05DF2C2A0BB
:1003A0005CF2D2A05DF2D2A05CF2E2A05DF2E2A02B
:1003B0005CF2F2A05DF2F2A05CF282A058F292A090
:1003C00058F2A2A058F2B2A058F2C2A058F2D2A09D
:0E03D00058F2E2A058F2F2A058F200F09C029F
:0806780082A061F292A061F280
:10068000A2A061F2B2A061F2C2A061F2D2A061F2B6
:10069000E2A061F2F2A061F280A063F280A062F2B7
:1006A00090A063F290A062F2A0A063F2A0A062F218
:1006B000B0A063F2B0A062F2C0A063F2C0A062F288
:1006C000D0A063F2D0A062F2E0A063F2E0A062F2F8
:1006D000F0A063F2F0A062F282A065F282A064F260
:1006E00092A065F292A064F2A2A065F2A2A064F2C8
:1006F000B2A065F2B2A064F2C2A065F2C2A064F238
:10070000D2A065F2D2A064F2E2A065F2E2A064F2A7
:10071000F2A065F2F2A064F282A060F292A060F210
:10072000A2A060F2B2A060F2C2A060F2D2A060F219
:0C073000E2A060F2F2A060F200F09C0277
:1002000082A069F292A069F2A2A069F2B2A069F29A
:10021000C2A069F2D2A069F280A06BF280A06AF25B
:1002200090A06BF290A06AF2A0A06BF2A0A06AF27C
:10023000B0A06BF2B0A06AF2C0A06BF2C0A06AF2EC
:10024000D0A06BF2D0A06AF282A068F292A068F20D
:10025000A2A068F2B2A068F2C2A068F2D2A068F2CE
:0402600000F09C020C
:060BBA00D0A076F992A024
:100BC00061F290A063F290A062F290A065F292A010
:100BD00064F290A072F982A072F9AC000101139046
:100BE00060F9D6000001139064F980A073F91FFE2C
:02000200CE0C22
:080088005CFF07000102030404
:070090000506070809FA004C
:010097000068
:0200000094EF7B
:02000400D00C1E
:020CCE0001CE55
:100CD000FFCE00E000E200E400E60008E0098AF050
:100CE000579088E8F079FCC10078FAC15A0CA50D3C
:100CF000119C0EF081A00EF0FBC9119D0EF0000AB0
:100D00000CF0A200AF905290FF7002C8FF7120C992
:100D1000AF905292AF905294AF905096AF90509740
:100D200080E4F0C901A20BC801A409C86F90029821
:100D300082E07F90239882E2FEE4F8C8E3CE6F90D1
:100D4000009881E07F90219881E2FFE4F8C8DACE34
:0E0D500001F00A000000119000F000F0F8051C
:02000A001FFED7
:0800A2007800D4EF2A000000F1
:0200AA00FFFF56
:107FE000FFFFFFFFFFFFFFFFFFFFFFFFFFFFFFFFA1
:107FF000FFFFFFFFFFFFFFFFFFFFFFFFFFFFFFFF91
:08009800000000000000000060
:0200A00000005E
:0C089400CEF86EF801F03C072EF88EF252
:04073C00007302C87C
:1007400029F01BCE6EF405F825FA1D981C991D9A08
:100750001C9B007BFAC8A9F88084208844F8308666
:1007600044F6618907F803C328883989FF14888013
:0C077000998105F2408000012EF41FFE6C
:00000001FF
